:020000040800F2
:10000000A00600208901000869080008870600088A
:100010001507000841040008491600080000000008
:10002000000000000000000000000000210D00089A
:100030002305000800000000090C00084D0F00080F
:10004000A3010008A3010008A3010008A301000800
:10005000A3010008A3010008A3010008A3010008F0
:10006000A3010008A3010008A3010008A3010008E0
:10007000A3010008A3010008A3010008A3010008D0
:10008000A3010008A3010008A3010008A3010008C0
:10009000A3010008A3010008A3010008A3010008B0
:1000A000A3010008A3010008A3010008A3010008A0
:1000B000A3010008A3010008A3010008A301000890
:1000C000A3010008A3010008A3010008A301000880
:1000D000A3010008A3010008A3010008A301000870
:1000E000A3010008A3010008A301000800F002F822
:1000F00000F03AF80AA090E8000C82448344AAF188
:100100000107DA4501D100F02FF8AFF2090EBAE885
:100110000F0013F0010F18BFFB1A43F0010318473B
:10012000601C0000801C0000103A24BF78C878C111
:10013000FAD8520724BF30C830C144BF04680C60ED
:10014000704700000023002400250026103A28BF35
:1001500078C1FBD8520728BF30C148BF0B60704739
:100160001FB51FBD10B510BD00F031F81146FFF7E7
:10017000F7FF01F06BFA00F04FF803B4FFF7F2FF5E
:1001800003BC00F057F800000948804709480047C1
:10019000FEE7FEE7FEE7FEE7FEE7FEE7FEE7FEE737
:1001A000FEE7FEE704480549054A064B7047000094
:1001B000550F0008ED000008A0000020A006002058
:1001C000A0020020A00200207047704770477546CB
:1001D00000F02CF8AE4605006946534620F00700B3
:1001E000854618B020B5FFF7DDFFBDE820404FF091
:1001F00000064FF000074FF000084FF0000B21F011
:100200000701AC46ACE8C009ACE8C009ACE8C009DD
:10021000ACE8C0098D46704710B50446AFF30080C6
:100220002046BDE81040FFF7A8BF00000048704717
:100230004000002001491820ABBEFEE72600020066
:100240007047000010B500F071FD01F09DF900F05D
:1002500068FD0020034908700349087003490870CD
:1002600010BD00002C0000202D00002038000020D0
:1002700010B500F0DBFA5A2000F0B0FD012006496D
:1002800008700649087000200549087001F00CF854
:10029000FA300449086010BD2D0000202C00002019
:1002A000380000203400002010B5002005490870F7
:1002B000054908700549087000F033FD00F0B6FAF2
:1002C00010BD00002D0000202C0000203800002070
:1002D00010B55148007820B15048006800F0A8F8E7
:1002E00000B910BD4E480078062879D2DFE800F04A
:1002F00085034757793E01F0F5F80446192C0EDDC9
:100300000020484908703C2000F00FFA05204449BD
:10031000087000F0C9FF3C304049086025E04148C2
:100320000078022804DA3F480078401C3D490870F4
:100330003C48007802280DDB00F078FA1E2000F01F
:100340004DFD02203649087000F0AEFFFA30334907
:1003500008600AE03C2000F0E8F905203049087008
:1003600000F0A2FF3C302D49086051E001202C49EB
:10037000087000F099FF3C302849086048E001F01F
:10038000B1F829490880962000F028FD032024496F
:10039000087000F089FFFA302049086038E001F069
:1003A000A1F82249088000201E4908705A2000F058
:1003B00015FD1D4800881D490988884203DB64201B
:1003C00000F042FA02E0642000F046FA04201449EA
:1003D000087000F069FF00F5FA701049086017E036
:1003E0000BE03C2000F0A1F905200D49087000F059
:1003F0005BFF6430094908600AE000F017FA012049
:100400000749087000F050FFFA300449086000BF47
:1004100000BF00BF65E700002D0000203400002071
:100420002C000020380000202E000020300000208A
:1004300010B5044600F038FF001BC017401C10BD6B
:1004400000BFFEE710B500F077F9FFF7FBFE10BD27
:1004500010B50446542C26D010DC462C29D006DCDE
:10046000302C44D0412C1AD0422C45D128E04C2CC1
:100470002DD0522C32D0532C3ED136E06C2C27D0CC
:1004800006DC612C0CD0622C1BD0662C34D111E020
:10049000722C24D0732C29D0742C2DD104E000BFF1
:1004A000FFF7E6FE29E000BFFFF7FEFE00F0ACFC20
:1004B00023E000BFFFF7F8FE642000F036F91CE0EF
:1004C00000BFFFF7F1FE642000F026F915E000BF41
:1004D000FFF7EAFE642000F0B7F90EE000BFFFF777
:1004E000E3FE642000F0B8F907E000BF00BFFFF7AB
:1004F000DBFE00F09BF900E000BF00BF10BD10B5AF
:10050000FFF7E6FE10BD10B500F024FF10BD08B5E2
:10051000684600F00DFF18B19DF80000FFF798FF46
:1005200008BD7047002002E000BF411C88B240F2C5
:100530004C418842F8DB704710B5044601E0FFF7F4
:10054000F1FF201EA4F10104F9D110BD2DE9F04105
:10055000024600250026002000230024002791F8F1
:1005600003C00CF00F0591F803C00CF0100CBCF1A7
:10057000000F03D091F802C04CEA050591F800C0C5
:10058000BCF1000F31D0146800202BE04FF0010CBB
:100590000CFA00F3B1F800C00CEA03069E4220D129
:1005A00083004FF00F0C0CFA03F7BC4305FA03FC71
:1005B0004CEA040491F803C0BCF1280F06D14FF0B7
:1005C000010C0CFA00FCC2F814C00AE091F803C058
:1005D000BCF1480F05D14FF0010C0CFA00FCC2F839
:1005E00010C0401C0828D1D31460B1F800C0BCF181
:1005F000FF0F34DD546800202EE000F1080C4FF0AE
:10060000010808FA0CF3B1F800C00CEA03069E4298
:1006100021D183004FF00F0C0CFA03F7BC4305FA0D
:1006200003FC4CEA040491F803C0BCF1280F05D187
:1006300000F1080C08FA0CF8C2F8148091F803C015
:10064000BCF1480F07D100F1080C4FF0010808FA7F
:100650000CF8C2F81080401C0828CED35460BDE8C6
:10066000F0810246002093680B400BB1012000E0AE
:100670000020704741617047016170470AB1016114
:1006800000E04161704700BFFEE7000010B50024A4
:1006900002211448FFF7E5FF68B91420FFF74CFF6B
:1006A00000BF02210F48FFF7DCFF0028F9D014201B
:1006B000FFF742FF01244FF400610A48FFF7D1FF22
:1006C00070B91420FFF738FF00BF4FF400610548F0
:1006D000FFF7C7FF0028F8D01420FFF72DFF0224F2
:1006E000204610BD000C014008B50121082000F093
:1006F0009DFA40F60200ADF8000048208DF8030096
:1007000003208DF8020069460148FFF71FFF08BD6E
:10071000000C014000BFFEE710B50446604201B284
:10072000604200B200F078F810BD10B5044621B266
:1007300020B200F071F810BD08B500F005FA0121F3
:10074000042000F073FA10208DF80300F020ADF8BB
:10075000000003208DF8020069460348FFF7F6FE0B
:1007600000F064F808BD000000080140014664295B
:1007700001DD6420704711F1640F02DA6FF063004D
:10078000F8E70846F6E7000010B504462046FFF7F4
:10079000EDFF0446002C0BDB10210C48FFF76AFF2D
:1007A00020210A48FFF768FFA0B200F01DFA0BE015
:1007B00010210648FFF760FF20210448FFF75AFF89
:1007C000614288B200F010FA10BD0000000801403C
:1007D00010B504462046FFF7C9FF0446002C0BDB8A
:1007E00040210C48FFF746FF80210A48FFF744FFED
:1007F000A0B200F001FA0BE040210648FFF73CFFF1
:1008000080210448FFF736FF614288B200F0F4F916
:1008100010BD00000008014070B505460C46284692
:10082000FFF7B2FF2046FFF7D3FF70BD10B50020E1
:1008300000F0DAF9002000F0DFF9F0210148FFF7BD
:1008400019FF10BD0008014010B5044621B26042F6
:1008500000B2FFF7E1FF10BD10B50446604201B2DF
:1008600020B2FFF7D9FF10BD704770B500240EE02D
:100870000021204600F0E9F8002504E0002000F007
:1008800053F9681CC5B2802DF8DB601CC4B2082C7B
:10089000EEDB70BD08B50121082000F0C7F9142077
:1008A0008DF8030003208DF802004FF48070ADF83E
:1008B000000069460A48FFF749FE4FF40070ADF8A2
:1008C000000069460648FFF741FE01221102044874
:1008D000FFF7D4FE012251020148FFF7CFFE08BD09
:1008E000000C014070B50546002419E0802020412D
:1008F000284008B1012000E0002002464FF40071BA
:100900000E48FFF7BBFE012211020C48FFF7B6FEAE
:1009100000224FF480710948FFF7B0FE601CC4B29A
:10092000082CE3DB012211020448FFF7A7FE002296
:100930004FF480710148FFF7A1FE70BD000C01402B
:1009400010B5012251020A48FFF798FE0122110258
:100950000748FFF793FE00224FF400710448FFF7A9
:100960008DFE00224FF480710148FFF787FE10BD15
:10097000000C014010B500224FF400710648FFF74B
:100980007DFE012211020448FFF778FE0122510288
:100990000148FFF773FE10BD000C014070B5002444
:1009A00006E0002500E06D1CB5F57A7FFBD3641CE2
:1009B000B4F57A7FF5D3FFF76DFFAE2000F0A4F811
:1009C000D52000F0A1F8802000F09EF8A82000F0CB
:1009D0009BF83F2000F098F8D32000F095F8002015
:1009E00000F092F8402000F08FF8A12000F08CF881
:1009F000C82000F089F8DA2000F086F8122000F014
:100A000083F8812000F080F8CF2000F07DF8D92015
:100A100000F07AF8F12000F077F8DB2000F074F8AD
:100A2000302000F071F8A42000F06EF8A62000F04D
:100A30006BF88D2000F068F8142000F065F8AF2006
:100A400000F062F8FFF711FF70BD70B505460C4667
:100A500045F0B00000F058F8102141EA141000F001
:100A600053F804F00F0000F04FF870BD2DE9F0418D
:100A700005460E461746721ED206110E6A1E520613
:100A8000100EFFF7E2FF002409E0A7F12001134A4E
:100A900002EB0111085D00F047F8601CC4B2082C9D
:100AA000F3DB721ED206110E6A1E012303EB420213
:100AB000D0B2FFF7CAFF00240BE0A7F12001074ADC
:100AC00002EB011204F10801505C00F02DF8601CEB
:100AD000C4B2082CF1DBBDE8F081000090170008DB
:100AE0002DE9F04107460E461546002407E02A5D31
:100AF0003019C1B23846FFF7B9FF601CC4B2285D97
:100B00000028F4D1BDE8F08110B50446FFF718FFC6
:100B10007820FFF7E7FE0020FFF7E4FE2046FFF70E
:100B2000E1FEFFF727FF10BD10B50446FFF708FFF1
:100B30007820FFF7D7FE4020FFF7D4FE2046FFF7CE
:100B4000D1FEFFF717FF10BD00B589B0012108469F
:100B500000F05CF80121042000F068F818208DF8FE
:100B600023000C20ADF8200003208DF8220008A9F6
:100B70001C48FFF7EBFC4FF0804000F045FA0020E6
:100B8000ADF81A00ADF816006320ADF8180041F674
:100B90001F40ADF8140000208DF81C0005A94FF08F
:100BA000804000F02FFB01A800F018FB6020ADF89A
:100BB00004000020ADF80C000120ADF80600002074
:100BC000ADF80A0001A94FF0804000F079FA01A9C0
:100BD0004FF0804000F0C4FA0121880700F0F6F9D8
:100BE00009B000BD0008014010B5044621464FF091
:100BF000804000F0FFFA10BD10B5044621464FF0CA
:100C0000804000F0F9FA10BD7047000029B1064A93
:100C1000D2690243044BDA6104E0034AD269824399
:100C2000014BDA61704700000010024029B1064A0A
:100C300092690243044B9A6104E0034A9269824339
:100C4000014B9A61704700000010024030B500214E
:100C50000022002400232D4D6D6805F00C0121B108
:100C6000042905D0082923D105E0294D056022E09B
:100C7000274D05601FE0254D6D6805F47012234D6A
:100C80006D6805F48034022505EB92421CB9214DB4
:100C9000554305600BE01D4D6D6805F400351DB131
:100CA0001C4D5543056002E0194D5543056002E0B7
:100CB000174D056000BF00BF144D6D6805F0F001D1
:100CC0000909154D6B5C0568DD4045600F4D6D6889
:100CD00005F4E061090A104D6B5C4568DD408560F4
:100CE0000A4D6D6805F46051C90A0B4D6B5C45688F
:100CF000DD40C560054D6D6805F44041890B074D29
:100D00006B5CC568B5FBF3F5056130BD00100240B2
:100D100000127A0000093D00140000202400002089
:100D2000704710B55A2000F059F810BD00B589B0D1
:100D3000012140F60400FFF779FF18208DF8230009
:100D40004FF48070ADF8200003208DF8220008A930
:100D50001F48FFF7FBFB0020ADF81A00ADF81600A6
:100D600044F61F60ADF818004720ADF814000020CD
:100D70008DF81C0005A9174800F044FA01A800F0FE
:100D80002DFA6020ADF804000020ADF80C00012021
:100D9000ADF8060040F2DC50ADF80A0001A90D489C
:100DA00000F038F908210B4800F080F901210948CA
:100DB00000F000F90121074800F014F9012105486D
:100DC00000F004F900200449087009B000BD0000DB
:100DD00000080140002C01402800002070B50446A6
:100DE000B42C00DDB4244FF4FA606043B421B0FBAE
:100DF000F1F000F5FA7085B22946024800F0F8F9E2
:100E000070BD0000002C014010B515480078401C52
:100E10001349087008460078032801DD0020087097
:100E20000F48007830B1012808D002280AD00328E2
:100E300010D10BE05A20FFF7D1FF0EE01E20FFF784
:100E4000CDFF0AE09620FFF7C9FF06E05A20FFF722
:100E5000C5FF02E0FFF765FF00BF00BF10BD000047
:100E60002800002010B500F001F810BD0CB50020DE
:100E7000019000903348006840F4803031490860A8
:100E800000BF3048006800F4003000900198401C1A
:100E90000190009818B90198B0F5A06FF1D12948D8
:100EA000006800F4003010B10120009001E0002043
:100EB00000900098012843D12348006840F01000BA
:100EC000214908600846006820F0030008600846D1
:100ED000006840F0020008601A48406819494860FC
:100EE0000846406848600846406840F480604860B2
:100EF0000846406820F47C1048600846406840F48A
:100F0000E81048600846006840F08070086000BF44
:100F10000C48006800F000700028F9D009484068CB
:100F200020F00300074948600846406840F002008E
:100F3000486000BF0348406800F00C000828F9D161
:100F40000CBD0000001002400020024010B500F06F
:100F5000B1F910BD10B51348006840F00100114907
:100F6000086008464068104908400E494860084635
:100F700000680E4908400B4908600846006820F4E4
:100F8000802008600846406820F4FE0048604FF466
:100F90001F008860FFF766FF4FF00060044908609B
:100FA00010BD0000001002400000FFF8FFFFF6FE39
:100FB00008ED00E021B1028842F08002028004E0E6
:100FC00002884FF67F731A400280704721B1028871
:100FD00042F00102028004E002884FF6FE731A40DC
:100FE0000280704731B1B0F8442042F40042A0F8CA
:100FF000442005E0B0F84420C2F30E02A0F84420DB
:1010000070470146888C704701894FF6F87211408D
:101010000181704770B5002400220023058C4FF633
:10102000FE7635400584028C8388048B4FF68F75DD
:101030002C40B51E2C400D882C43751E2A400D896E
:101040002A434D882A43144DA8420BD0134DA84281
:1010500008D0134DA84205D0124DA84202D0124D1F
:10106000A84213D14FF6F7752A404D892A434FF60F
:10107000FB752A408D882A434FF6FF652B404FF6BB
:10108000FF552B408D892B43CD892B4383800483CF
:10109000CD888586028470BD002C0140003401405B
:1010A0000040014000440140004801400A46002140
:1010B000018B4FF6F773194011430183704700000D
:1010C00070B5002400220023058C4FF6FF663540E2
:1010D0000584028C8388848B4FF68F752C404FF6E5
:1010E000FC752C400D882C434FF6FF552A400D8986
:1010F0004FF6FF7606EA05252A434D8806EA0525C0
:101100002A43154DA84202D0144DA8421DD14FF2DA
:10111000FF752A404D894FF6FF7606EA05252A43DA
:101120004FF6FF352A408D8806EA05252A434EF6FC
:10113000FF752B404DF6FF752B408D8906EA05158E
:101140002B43CD8906EA05152B4383808483CD8804
:101150008587028470BD0000002C014000340140EE
:1011600070B5002200230024058C4EF6FF76354032
:101170000584038C8488828B48F6FF752A404FF6DD
:10118000FF452A400D884FF6FF7606EA05252A43DB
:101190004DF6FF752B400D8906EA05352B434D882A
:1011A00006EA05352B430B4DA84202D00A4DA84252
:1011B00008D14BF6FF752C408D894FF6FF7606EA75
:1011C00085152C4384808283CD88A0F84050038409
:1011D00070BD0000002C014000340140002101805E
:1011E00041808180C180018141818181C1817047BD
:1011F0008186704781877047A0F8401070478184CE
:1012000070470000002202881D4B98420ED01D4BF3
:1012100098420BD0B0F1804F08D01B4B984205D0BC
:101220001A4B984202D01A4B984204D14FF68F7352
:101230001A404B881A43174B984207D0164B9842D6
:1012400004D04FF6FF431A40CB881A4302808B88A4
:1012500083850B8803850A4B98420BD0094B984233
:1012600008D00E4B984205D00D4B984202D00D4B42
:10127000984201D10B7A03860123838270470000D4
:10128000002C0140003401400004004000080040F0
:10129000000C0040001000400014004000400140DD
:1012A00000440140004801400148006870470000C8
:1012B0003C00002002480068401C0149086070475B
:1012C0003C00002030B50020154908601548006832
:1012D0004FF47A72B0FBF2F1B1F1807F00D31DE0E0
:1012E00021F07F40401E4FF0E022506150170F2246
:1012F000002807DA13071D0E0B4B00F00F04241F04
:101300001D5503E013071C0E084B1C5400BF0020A2
:101310004FF0E02290610720106100BF30BD000057
:101320003C0000200000002018ED00E000E400E098
:1013300010B504462021064800F054F808B90020F2
:1013400010BD034800F0C8F820700120F8E7000045
:101350000038014000B585B0012144F20400FFF7D8
:1013600065FC18208DF813004FF40070ADF81000E4
:1013700003208DF8120004A91248FFF7E7F80420B3
:101380008DF813000002ADF8100004A90D48FFF716
:10139000DDF84FF4165000900020ADF80400ADF8D1
:1013A0000600ADF80800ADF80C000C20ADF80A00FE
:1013B0006946054800F024F80121034800F006F8CA
:1013C00005B000BD000801400038014021B182890C
:1013D00042F40052828104E082894DF6FF731A4084
:1013E0008281704702460020B1F5007F00D100BF26
:1013F00013880B400BB1012000E000207047000073
:101400002DE9F04786B005460E460024A24600BFEF
:10141000A1460027B08900B100BF2F462C8A4CF6A8
:10142000FF700440F08804432C82AC894EF6F31020
:101430000440B08831890843718908430443AC8172
:10144000AC8A4FF6FF400440B0890443AC8201A847
:10145000FFF7FCFB1F48874202D1DDF810A001E036
:10146000DDF80CA0A88900F4004040B10AEBCA00E6
:1014700000EB0A1031684900B0FBF1F807E00AEB15
:10148000CA0000EB0A1031688900B0FBF1F8642053
:10149000B8FBF0F004012009642101FB1089A88940
:1014A00000F4004040B1322000EBC900B0FBF1F085
:1014B00000F00700044308E0322000EB091064212B
:1014C000B0FBF1F000F00F0004432C8106B0BDE842
:1014D000F08700000038014001468888C0F308000A
:1014E0007047000070B500212548FFF788FE4FF4D3
:1014F00080512448FFF7BEF800BF2148FFF781FD67
:101500000228FADB4FF480511E48FFF7B5F800219E
:101510001B48FFF774FE00BF1948FFF772FD0A2849
:10152000FADB4FF480511748FFF7A4F80021144864
:10153000FFF765FE47F23051012000F067F810B95F
:101540004FF4C87070BD0E48FFF75BFD064647F2CA
:101550003051002000F05AF810B94FF4C870F1E78C
:101560000748FFF74EFD801B85B23A2095FBF0F04F
:1015700084B2B4F5C87F01DD4FF4C8742046E1E7BA
:1015800000040040000C01401FB501210820FFF7B6
:101590004DFB01210220FFF739FB10208DF80F00D1
:1015A0000002ADF80C0003208DF80E0003A91548C9
:1015B000FEF7CCFF28208DF80F004FF40050ADF857
:1015C0000C0003A90F48FEF7C1FF0020ADF806008C
:1015D000ADF802004FF6FF70ADF804004720ADF8FB
:1015E000000000208DF8080069460748FFF70AFE52
:1015F00001210548FFF7EAFC4FF480510148FFF74D
:1016000039F81FBD000C01400004004070B50446CD
:101610000D460B48FFF7F5FC064608E00848FFF7C3
:10162000F0FC801B80B2A84201DB002070BD4FF4AB
:1016300000510448FFF715F8A042EFD10120F5E76B
:1016400000040040000C014000BFFEE70024FFF74B
:10165000A5F9FFF737FEFEF7F5FEFEF754FFFFF79B
:1016600043F833A201210846FFF73AFA33A20121D9
:101670000220FFF735FA59E0FFF708F80546012D7B
:1016800050D1601CC4B2062C00DD0024072C44D2CB
:10169000DFE804F0040D161F28313A005320FEF74E
:1016A000D7FE26A201210220FFF71AFA39E04620D0
:1016B000FEF7CEFE24A201210220FFF711FA30E04E
:1016C0004220FEF7C5FE23A201210220FFF708FAFF
:1016D00027E04C20FEF7BCFE21A201210220FFF7EB
:1016E000FFF91EE05220FEF7B3FE20A201210220E6
:1016F000FFF7F6F915E04120FEF7AAFE1EA2012130
:101700000220FFF7EDF90CE05420FEF7A1FE1DA228
:1017100001210220FFF7E4F903E05320FEF798FED1
:1017200000BF00BFFEF7F3FEFEF7E9FEA4E70000EE
:1017300043415220544553540000000053544F502D
:101740002020202020202000464F52574152442084
:10175000202020004241434B57415244202020008A
:101760005455524E204C4546542020005455524E5C
:1017700020524947485420004155544F2041564F6C
:1017800049442000534552564F205445535420009D
:101790000000000000000000000000000000000049
:1017A000000000F8000000000000003330000000DE
:1017B00000100C06100C06000000000000000000E5
:1017C00040C07840C0784000043F04043F04040057
:1017D000007088FC08300000001820FF211E000067
:1017E000F008F000E018000000211C031E211E007C
:1017F00000F00888700000001E2123241927211002
:1018000010160E00000000000000000000000000A4
:10181000000000E01804020000000007182040004B
:1018200000020418E000000000402018070000003B
:10183000404080F0804040000202010F010202009F
:10184000000000F0000000000101011F0101010083
:10185000000000000000000080B0700000000000E8
:101860000000000000000000000101010101010171
:101870000000000000000000003030000000000008
:1018800000000000806018040060180601000000DD
:1018900000E010080810E000000F102020100F00DA
:1018A000001010F8000000000020203F2020000061
:1018B00000700808088870000030282422213000B9
:1018C00000300888884830000018202020110E00C1
:1018D0000000C02010F8000000070424243F24006A
:1018E00000F80888880808000019212020110E003F
:1018F00000E0108888180000000F112020110E0051
:1019000000380808C83808000000003F0000000048
:101910000070880808887000001C222121221C0009
:1019200000E010080810E0000000312222110F0032
:10193000000000C0C00000000000003030000000C7
:101940000000008000000000000080600000000037
:101950000000804020100800000102040810200050
:10196000404040404040400004040404040404009B
:101970000008102040800000002010080402010030
:10198000007048080808F000000000303601000030
:10199000C030C828E810E0000718272423140B00E3
:1019A0000000C038E0000000203C2302022738205D
:1019B00008F8888888700000203F202020110E0041
:1019C000C030080808083800071820202010080038
:1019D00008F808080810E000203F202020100F0021
:1019E00008F88888E8081000203F202023201800ED
:1019F00008F88888E8081000203F20000300000055
:101A0000C03008080838000007182020221E0200F5
:101A100008F808000008F808203F210101213F20B4
:101A2000000808F8080800000020203F20200000DF
:101A300000000808F8080800C08080807F000000CF
:101A400008F888C028180800203F20012638200008
:101A500008F8080000000000203F2020202030006F
:101A600008F8F800F8F80800203F003F003F200089
:101A700008F830C00008F808203F200007183F0091
:101A8000E01008080810E0000F10202020100F00C0
:101A900008F808080808F000203F210101010000B3
:101AA000E01008080810E0000F18242438504F00F8
:101AB00008F8888888887000203F2000030C3020B8
:101AC00000708808080838000038202121221C00F6
:101AD000180808F8080818000000203F200000003F
:101AE00008F808000008F808001F202020201F0028
:101AF0000878880000C83808000007380E01000088
:101B0000F80800F80008F800033C0700073C030051
:101B1000081868808068180820302C03032C3020B7
:101B20000838C800C83808000000203F2000000026
:101B300010080808C838080020382621202018007E
:101B4000000000FE020202000000007F4040400052
:101B5000000C30C000000000000000010638C0008A
:101B600000020202FE000000004040407F00000032
:101B70000000040202020400000000000000000057
:101B80000000000000000000808080808080808055
:101B9000000202040000000000000000000000003D
:101BA00000008080808000000019242222223F2033
:101BB00008F8008080000000003F112020110E0076
:101BC0000000008080800000000E11202020110005
:101BD000000000808088F800000E112020103F20B7
:101BE0000000808080800000001F2222222213003B
:101BF000008080F0888888180020203F2020000086
:101C00000000808080808000006B9494949360003A
:101C100008F8008080800000203F210000203F2045
:101C200000809898000000000020203F2020000045
:101C3000000000809898000000C08080807F000035
:101C400008F8000080808000203F24022D30200012
:101C5000000808F8000000000020203F20200000BD
:101C60008080808080808000203F20003F20003FD7
:101C70008080008080800000203F210000203F20E5
:101C80000000808080800000001F202020201F0096
:101C9000808000808000000080FFA12020110E00C5
:101CA0000000008080808000000E112020A0FF80B6
:101CB000808080008080800020203F212000010063
:101CC00000008080808080000033242424241900B8
:101CD000008080E0808000000000001F20200000C5
:101CE0008080000000808000001F202020103F2006
:101CF000808080000080808000010E300806010096
:101D000080800080008080800F300C030C300F003A
:101D100000808000808080000020312E0E31200065
:101D2000808080000080808080818E701806010095
:101D300000808080808080000021302C22213000B3
:101D400000000000807C020200000000003F4040D4
:101D500000000000FF00000000000000FF00000085
:101D60000002027C800000000040403F00000000B4
:101D7000000601010202040400000000000000004F
:101D8000A01D0008000000204000000028010008FD
:101D9000E01D00084000002060060000440100082B
:101DA00000A24A0400000000000000000102030439
:101DB00006070809000000000102030401020304F1
:101DC00006070809020406080000000000000000E1
:101DD0000000000000000000000000000000000003
:040000050800018965
:00000001FF
