:020000040800F2
:10000000780600208901000825060008450400083C
:10001000D104000843020008E30F000800000000BC
:10002000000000000000000000000000DD0A0008E1
:10003000E102000800000000C5090008C90B000823
:10004000A3010008A3010008A3010008A301000800
:10005000A3010008A3010008A3010008A3010008F0
:10006000A3010008A3010008A3010008A3010008E0
:10007000A3010008A3010008A3010008A3010008D0
:10008000A3010008A3010008A3010008A3010008C0
:10009000A3010008A3010008A3010008A3010008B0
:1000A000A3010008A3010008A3010008A3010008A0
:1000B000A3010008A3010008A3010008A301000890
:1000C000A3010008A3010008A3010008A301000880
:1000D000A3010008A3010008A3010008A301000870
:1000E000A3010008A3010008A301000800F002F822
:1000F00000F03AF80AA090E8000C82448344AAF188
:100100000107DA4501D100F02FF8AFF2090EBAE885
:100110000F0013F0010F18BFFB1A43F0010318473B
:10012000B4150000D4150000103A24BF78C878C177
:10013000FAD8520724BF30C830C144BF04680C60ED
:10014000704700000023002400250026103A28BF35
:1001500078C1FBD8520728BF30C148BF0B60704739
:100160001FB51FBD10B510BD00F031F81146FFF7E7
:10017000F7FF00F039FF00F04FF803B4FFF7F2FF8C
:1001800003BC00F057F800000948804709480047C1
:10019000FEE7FEE7FEE7FEE7FEE7FEE7FEE7FEE737
:1001A000FEE7FEE704480549054A064B7047000094
:1001B000CD0B0008ED000008780000207806002034
:1001C000780200207802002070477047704775461B
:1001D00000F02CF8AE4605006946534620F00700B3
:1001E000854618B020B5FFF7DDFFBDE820404FF091
:1001F00000064FF000074FF000084FF0000B21F011
:100200000701AC46ACE8C009ACE8C009ACE8C009DD
:10021000ACE8C0098D46704710B50446AFF30080C6
:100220002046BDE81040FFF7A8BF00000048704717
:100230001400002001491820ABBEFEE72600020092
:10024000704700BFFEE710B500F054F910BD10B5BF
:100250000446532C2ED00CDC462C17D004DC302C5A
:100260002AD0422C2BD116E04C2C19D0522C26D15E
:100270001BE06C2C15D004DC622C0DD0662C1ED13A
:1002800005E0722C12D0732C19D114E000BF642049
:1002900000F029F914E000BF642000F01BF90FE022
:1002A00000BF642000F0AEF90AE000BF642000F057
:1002B000B1F905E000BF00BF00F096F900E000BF13
:1002C00000BF10BD10B500F0C5FD10BD08B56846F3
:1002D00000F0AEFD18B19DF80000FFF7B8FF08BDB3
:1002E0007047002002E000BF411C88B240F24C4140
:1002F0008842F8DB704710B5044601E0FFF7F1FFD4
:10030000201EA4F10104F9D110BD2DE9F0410246EF
:1003100000250026002000230024002791F803C0B8
:100320000CF00F0591F803C00CF0100CBCF1000F9D
:1003300003D091F802C04CEA050591F800C0BCF169
:10034000000F31D0146800202BE04FF0010C0CFAA4
:1003500000F3B1F800C00CEA03069E4220D18300EE
:100360004FF00F0C0CFA03F7BC4305FA03FC4CEA00
:10037000040491F803C0BCF1280F06D14FF0010C22
:100380000CFA00FCC2F814C00AE091F803C0BCF1FA
:10039000480F05D14FF0010C0CFA00FCC2F810C058
:1003A000401C0828D1D31460B1F800C0BCF1FF0F85
:1003B00034DD546800202EE000F1080C4FF00108F5
:1003C00008FA0CF3B1F800C00CEA03069E4221D1F2
:1003D00083004FF00F0C0CFA03F7BC4305FA03FC43
:1003E0004CEA040491F803C0BCF1280F05D100F1D8
:1003F000080C08FA0CF8C2F8148091F803C0BCF19C
:10040000480F07D100F1080C4FF0010808FA0CF86A
:10041000C2F81080401C0828CED35460BDE8F0819B
:100420000246002093680B400BB1012000E0002041
:10043000704741617047016170470AB1016100E096
:100440004161704700BFFEE710B500240221144847
:10045000FFF7E6FF68B91420FFF74DFF00BF022148
:100460000F48FFF7DDFF0028F9D01420FFF743FF06
:1004700001244FF400610A48FFF7D2FF70B914203D
:10048000FFF739FF00BF4FF400610548FFF7C8FFD1
:100490000028F8D01420FFF72EFF0224204610BDBC
:1004A000000C014008B50121082000F09DFA40F63B
:1004B0000200ADF8000048208DF8030003208DF8FD
:1004C000020069460148FFF720FF08BD000C01400B
:1004D00000BFFEE710B50446604201B2604200B2C0
:1004E00000F078F810BD10B5044621B220B200F03B
:1004F00071F810BD08B500F005FA0121042000F0E4
:1005000073FA10208DF80300F020ADF800000320EE
:100510008DF8020069460348FFF7F7FE00F064F823
:1005200008BD0000000801400146642901DD642087
:10053000704711F1640F02DA6FF06300F8E70846C4
:10054000F6E7000010B504462046FFF7EDFF04462D
:10055000002C0BDB10210C48FFF76DFF20210A480F
:10056000FFF767FFA0B200F01DFA0BE0102106486C
:10057000FFF75FFF20210448FFF75DFF614288B26B
:1005800000F010FA10BD00000008014010B504464C
:100590002046FFF7C9FF0446002C0BDB40210C4826
:1005A000FFF749FF80210A48FFF743FFA0B200F0A0
:1005B00001FA0BE040210648FFF73BFF8021044889
:1005C000FFF739FF614288B200F0F4F910BD000076
:1005D0000008014070B505460C462846FFF7B2FFFB
:1005E0002046FFF7D3FF70BD10B5002000F0DAF908
:1005F000002000F0DFF9F0210148FFF71AFF10BDDD
:100600000008014010B5044621B2604200B2FFF775
:10061000E1FF10BD10B50446604201B220B2FFF701
:10062000D9FF10BD704770B500240EE000212046B0
:1006300000F0E9F8002504E0002000F053F9681C00
:10064000C5B2802DF8DB601CC4B2082CEEDB70BD97
:1006500008B50121082000F0C7F914208DF8030027
:1006600003208DF802004FF48070ADF80000694659
:100670000A48FFF74AFE4FF40070ADF800006946E3
:100680000648FFF742FE012211020448FFF7D5FE9B
:10069000012251020148FFF7D0FE08BD000C0140C5
:1006A00070B50546002419E080202041284008B19B
:1006B000012000E0002002464FF400710E48FFF7D1
:1006C000BCFE012211020C48FFF7B7FE00224FF4D6
:1006D00080710948FFF7B1FE601CC4B2082CE3DB4F
:1006E000012211020448FFF7A8FE00224FF4807196
:1006F0000148FFF7A2FE70BD000C014010B50122B9
:1007000051020A48FFF799FE012211020748FFF73C
:1007100094FE00224FF400710448FFF78EFE002281
:100720004FF480710148FFF788FE10BD000C0140B6
:1007300010B500224FF400710648FFF77EFE01223B
:1007400011020448FFF779FE012251020148FFF728
:1007500074FE10BD000C014070B5002406E00025B9
:1007600000E06D1CB5F57A7FFBD3641CB4F57A7F8D
:10077000F5D3FFF76DFFAE2000F0A4F8D52000F010
:10078000A1F8802000F09EF8A82000F09BF83F2000
:1007900000F098F8D32000F095F8002000F092F8CF
:1007A000402000F08FF8A12000F08CF8C82000F065
:1007B00089F8DA2000F086F8122000F083F8812012
:1007C00000F080F8CF2000F07DF8D92000F07AF812
:1007D000F12000F077F8DB2000F074F8302000F012
:1007E00071F8A42000F06EF8A62000F06BF88D20C0
:1007F00000F068F8142000F065F8AF2000F062F80F
:10080000FFF711FF70BD70B505460C4645F0B0000E
:1008100000F058F8102141EA141000F053F804F0E9
:100820000F0000F04FF870BD2DE9F04105460E466F
:100830001746721ED206110E6A1E5206100EFFF7E0
:10084000E2FF002409E0A7F12001134A02EB0111A5
:10085000085D00F047F8601CC4B2082CF3DB721E80
:10086000D206110E6A1E012303EB4202D0B2FFF73B
:10087000CAFF00240BE0A7F12001074A02EB011296
:1008800004F10801505C00F02DF8601CC4B2082C83
:10089000F1DBBDE8F0810000E41000082DE9F04133
:1008A00007460E461546002407E02A5D3019C1B2FE
:1008B0003846FFF7B9FF601CC4B2285D0028F4D1A8
:1008C000BDE8F08110B50446FFF718FF7820FFF768
:1008D000E7FE0020FFF7E4FE2046FFF7E1FEFFF70A
:1008E00027FF10BD10B50446FFF708FF7820FFF77B
:1008F000D7FE4020FFF7D4FE2046FFF7D1FEFFF7DA
:1009000017FF10BD00B589B00121084600F05CF862
:100910000121042000F068F818208DF823000C2035
:10092000ADF8200003208DF8220008A91C48FFF72D
:10093000ECFC4FF0804000F085F90020ADF81A0083
:10094000ADF816006320ADF8180041F61F40ADF871
:10095000140000208DF81C0005A94FF0804000F025
:1009600015FA01A800F002FA6020ADF8040000209A
:10097000ADF80C000120ADF806000020ADF80A002B
:1009800001A94FF0804000F063F901A94FF08040C9
:1009900000F0AEF90121880700F048F909B000BD68
:1009A0000008014010B5044621464FF0804000F099
:1009B000E7F910BD10B5044621464FF0804000F025
:1009C000E1F910BD7047000029B1064AD26902431F
:1009D000044BDA6104E0034AD2698243014BDA61D5
:1009E000704700000010024029B1064A9269024394
:1009F000044B9A6104E0034A92698243014B9A6175
:100A0000704700000010024030B500210022002491
:100A100000232D4D6D6805F00C0121B1042905D08E
:100A2000082923D105E0294D056022E0274D056006
:100A30001FE0254D6D6805F47012234D6D6805F4B7
:100A40008034022505EB92421CB9214D55430560C7
:100A50000BE01D4D6D6805F400351DB11C4D55436F
:100A6000056002E0194D5543056002E0174D056031
:100A700000BF00BF144D6D6805F0F0010909154D68
:100A80006B5C0568DD4045600F4D6D6805F4E06105
:100A9000090A104D6B5C4568DD4085600A4D6D6844
:100AA00005F46051C90A0B4D6B5C4568DD40C560BB
:100AB000054D6D6805F44041890B074D6B5CC568B9
:100AC000B5FBF3F5056130BD0010024000127A005D
:100AD00000093D000000002010000020704710B504
:100AE00000F002F810BD00000CB50020019000904D
:100AF0003348006840F480303149086000BF304816
:100B0000006800F4003000900198401C01900098AB
:100B100018B90198B0F5A06FF1D12948006800F428
:100B2000003010B10120009001E0002000900098FA
:100B3000012843D12348006840F010002149086093
:100B40000846006820F0030008600846006840F08E
:100B5000020008601A484068194948600846406821
:100B600048600846406840F4806048600846406835
:100B700020F47C1048600846406840F4E810486063
:100B80000846006840F08070086000BF0C480068AC
:100B900000F000700028F9D00948406820F00300F8
:100BA000074948600846406840F00200486000BFBE
:100BB0000348406800F00C000828F9D10CBD000083
:100BC00000100240002002407047000010B513489A
:100BD000006840F00100114908600846406810496B
:100BE00008400E494860084600680E4908400B4915
:100BF00008600846006820F48020086008464068C5
:100C000020F4FE0048604FF41F008860FFF767FF84
:100C10004FF000600449086010BD00000010024061
:100C20000000FFF8FFFFF6FE08ED00E021B10288AA
:100C300042F00102028004E002884FF6FE731A407F
:100C40000280704701894FF6F872114001817047A8
:100C500070B5002400220023058C4FF6FF66354056
:100C60000584028C8388848B4FF68F752C404FF659
:100C7000FC752C400D882C434FF6FF552A400D89FA
:100C80004FF6FF7606EA05252A434D8806EA052534
:100C90002A43154DA84202D0144DA8421DD14FF24F
:100CA000FF752A404D894FF6FF7606EA05252A434F
:100CB0004FF6FF352A408D8806EA05252A434EF671
:100CC000FF752B404DF6FF752B408D8906EA051503
:100CD0002B43CD8906EA05152B4383808483CD8879
:100CE0008587028470BD0000002C01400034014063
:100CF00070B5002200230024058C4EF6FF763540A7
:100D00000584038C8488828B48F6FF752A404FF651
:100D1000FF452A400D884FF6FF7606EA05252A434F
:100D20004DF6FF752B400D8906EA05352B434D889E
:100D300006EA05352B430B4DA84202D00A4DA842C6
:100D400008D14BF6FF752C408D894FF6FF7606EAE9
:100D500085152C4384808283CD88A0F8405003847D
:100D600070BD0000002C01400034014000210180D2
:100D700041808180C180018141818181C181704731
:100D800081877047A0F84010704700000022028859
:100D90001D4B98420ED01D4B98420BD0B0F1804FA6
:100DA00008D01B4B984205D01A4B984202D01A4BE0
:100DB000984204D14FF68F731A404B881A43174B51
:100DC000984207D0164B984204D04FF6FF431A4082
:100DD000CB881A4302808B8883850B8803850A4B56
:100DE00098420BD0094B984208D00E4B984205D040
:100DF0000D4B984202D00D4B984201D10B7A0386DD
:100E00000123838270470000002C01400034014020
:100E10000004004000080040000C004000100040AA
:100E200000140040004001400044014000480140DF
:100E300010B504462021064800F054F808B90020F7
:100E400010BD034800F0C8F820700120F8E700004A
:100E50000038014000B585B0012144F20400FFF7DD
:100E6000C3FD18208DF813004FF40070ADF810008A
:100E700003208DF8120004A91248FFF746FA042057
:100E80008DF813000002ADF8100004A90D48FFF71B
:100E90003CFA4FF4165000900020ADF80400ADF875
:100EA0000600ADF80800ADF80C000C20ADF80A0003
:100EB0006946054800F024F80121034800F006F8CF
:100EC00005B000BD000801400038014021B1828911
:100ED00042F40052828104E082894DF6FF731A4089
:100EE0008281704702460020B1F5007F00D100BF2B
:100EF00013880B400BB1012000E000207047000078
:100F00002DE9F04786B005460E460024A24600BFF4
:100F1000A1460027B08900B100BF2F462C8A4CF6AD
:100F2000FF700440F08804432C82AC894EF6F31025
:100F30000440B08831890843718908430443AC8177
:100F4000AC8A4FF6FF400440B0890443AC8201A84C
:100F5000FFF75AFD1F48874202D1DDF810A001E0DB
:100F6000DDF80CA0A88900F4004040B10AEBCA00EB
:100F700000EB0A1031684900B0FBF1F807E00AEB1A
:100F8000CA0000EB0A1031688900B0FBF1F8642058
:100F9000B8FBF0F004012009642101FB1089A88945
:100FA00000F4004040B1322000EBC900B0FBF1F08A
:100FB00000F00700044308E0322000EB0910642130
:100FC000B0FBF1F000F00F0004432C8106B0BDE847
:100FD000F08700000038014001468888C0F308000F
:100FE000704700BFFEE700000024FFF7B5FBFFF7E6
:100FF0002AF9FFF767F9FFF755FA28A201210846F9
:10100000FFF74CFC28A201210220FFF747FC44E037
:10101000FFF71AFA0546012D3DD1601CC4B2042C1D
:1010200000DD0024052C31D2DFE804F0030C151E8E
:1010300027005320FFF70BF91BA201210220FFF725
:101040002DFC27E04620FFF702F91AA20121022019
:10105000FFF724FC1EE04220FFF7F9F818A2012157
:101060000220FFF71BFC15E04C20FFF7F0F817A259
:1010700001210220FFF712FC0CE05220FFF7E7F8F5
:1010800015A201210220FFF709FC03E05320FFF71E
:10109000DEF800BF00BFFFF719F9B9E7434152205E
:1010A000544553540000000053544F50202020203A
:1010B00020202000464F525741524420202020003B
:1010C0004241434B57415244202020005455524E38
:1010D000204C4546542020005455524E205249473A
:1010E0004854200000000000000000000000000044
:1010F00000000000000000F80000000000000033C5
:101100003000000000100C06100C0600000000006B
:101110000000000040C07840C0784000043F040454
:101120003F040400007088FC08300000001820FF15
:10113000211E0000F008F000E018000000211C0350
:101140001E211E0000F00888700000001E212324CC
:101150001927211010160E000000000000000000EA
:1011600000000000000000E018040200000000077A
:101170001820400000020418E00000000040201881
:1011800007000000404080F0804040000202010F54
:1011900001020200000000F0000000000101011F38
:1011A00001010100000000000000000080B070009C
:1011B000000000000000000000000000000101012C
:1011C00001010101000000000000000000303000BB
:1011D0000000000000000000806018040060180695
:1011E0000100000000E010080810E000000F1020CF
:1011F00020100F00001010F8000000000020203F19
:1012000020200000007008080888700000302824A2
:101210002221300000300888884830000018202043
:1012200020110E000000C02010F800000007042468
:10123000243F240000F808888808080000192120AD
:1012400020110E0000E0108888180000000F112007
:1012500020110E0000380808C83808000000003FC0
:10126000000000000070880808887000001C22211F
:1012700021221C0000E010080810E00000003122CC
:1012800022110F00000000C0C0000000000000306C
:1012900030000000000000800000000000008060BE
:1012A000000000000000804020100800000102043F
:1012B0000810200040404040404040000404040426
:1012C00004040400000810204080000000201008E2
:1012D00004020100007048080808F0000000003017
:1012E00036010000C030C828E810E00007182724A5
:1012F00023140B000000C038E0000000203C230253
:101300000227382008F8888888700000203F2020B5
:1013100020110E00C03008080808380007182020E7
:101320002010080008F808080810E000203F2020DE
:1013300020100F0008F88888E8081000203F2020BF
:101340002320180008F88888E8081000203F2000B3
:1013500003000000C03008080838000007182020EB
:10136000221E020008F808000008F808203F2101AA
:1013700001213F20000808F8080800000020203F55
:101380002020000000000808F8080800C0808080C5
:101390007F00000008F888C028180800203F2001BE
:1013A0002638200008F8080000000000203F202018
:1013B0002020300008F8F800F8F80800203F003F2F
:1013C000003F200008F830C00008F808203F200047
:1013D00007183F00E01008080810E0000F10202058
:1013E00020100F0008F808080808F000203F21012D
:1013F00001010000E01008080810E0000F18242484
:1014000038504F0008F8888888887000203F2000F6
:10141000030C3020007088080808380000382021AC
:1014200021221C00180808F8080818000000203FB6
:101430002000000008F808000008F808001F20201D
:1014400020201F000878880000C8380800000738EE
:101450000E010000F80800F80008F800033C07003F
:10146000073C0300081868808068180820302C03A7
:10147000032C30200838C800C83808000000203F7E
:101480002000000010080808C8380800203826216D
:1014900020201800000000FE020202000000007F71
:1014A00040404000000C30C000000000000000017F
:1014B0000638C00000020202FE000000004040406A
:1014C0007F0000000000040202020400000000008F
:1014D000000000000000000000000000808080800C
:1014E00080808080000202040000000000000000F4
:1014F000000000000000808080800000001924228D
:1015000022223F2008F8008080000000003F1120C8
:1015100020110E000000008080800000000E1120CD
:1015200020201100000000808088F800000E1120AB
:1015300020103F200000808080800000001F2222B9
:1015400022221300008080F0888888180020203F25
:10155000202000000000808080808000006B949438
:101560009493600008F8008080800000203F2100F4
:1015700000203F2000809898000000000020203FBD
:1015800020200000000000809898000000C08080AB
:10159000807F000008F8000080808000203F240247
:1015A0002D302000000808F8000000000020203F37
:1015B000202000008080808080808000203F2000EC
:1015C0003F20003F8080008080800000203F21007D
:1015D00000203F200000808080800000001F20202D
:1015E00020201F00808000808000000080FFA1205C
:1015F00020110E000000008080808000000E11206D
:1016000020A0FF80808080008080800020203F21FB
:1016100020000100000080808080800000332424AE
:1016200024241900008080E0808000000000001F5A
:10163000202000008080000000808000001F20200B
:1016400020103F20808080000080808000010E30CC
:101650000806010080800080008080800F300C032D
:101660000C300F0000808000808080000020312E30
:101670000E312000808080000080808080818E700C
:101680001806010000808080808080000021302CBE
:101690002221300000000000807C020200000000D7
:1016A000003F404000000000FF000000000000007C
:1016B000FF0000000002027C800000000040403F6C
:1016C0000000000000060101020204040000000006
:1016D00000000000F41600080000002014000000C4
:1016E0002801000808170008140000206406000004
:1016F0004401000800000000010203040102030489
:081700000607080902040608AF
:040000050800018965
:00000001FF
